{"abi":[{"type":"function","name":"credits","inputs":[{"name":"","type":"uint256","internalType":"uint256"}],"outputs":[{"name":"projectId","type":"string","internalType":"string"},{"name":"vintage","type":"uint256","internalType":"uint256"},{"name":"creditType","type":"string","internalType":"string"},{"name":"verificationHash","type":"string","internalType":"string"},{"name":"quantity","type":"uint256","internalType":"uint256"},{"name":"retired","type":"bool","internalType":"bool"}],"stateMutability":"view"},{"type":"function","name":"getCredit","inputs":[{"name":"tokenId","type":"uint256","internalType":"uint256"}],"outputs":[{"name":"","type":"tuple","internalType":"struct CarbonCreditToken.Credit","components":[{"name":"projectId","type":"string","internalType":"string"},{"name":"vintage","type":"uint256","internalType":"uint256"},{"name":"creditType","type":"string","internalType":"string"},{"name":"verificationHash","type":"string","internalType":"string"},{"name":"quantity","type":"uint256","internalType":"uint256"},{"name":"retired","type":"bool","internalType":"bool"}]}],"stateMutability":"view"},{"type":"function","name":"mint","inputs":[{"name":"projectId","type":"string","internalType":"string"},{"name":"vintage","type":"uint256","internalType":"uint256"},{"name":"creditType","type":"string","internalType":"string"},{"name":"verificationHash","type":"string","internalType":"string"},{"name":"quantity","type":"uint256","internalType":"uint256"}],"outputs":[],"stateMutability":"nonpayable"},{"type":"function","name":"nextTokenId","inputs":[],"outputs":[{"name":"","type":"uint256","internalType":"uint256"}],"stateMutability":"view"},{"type":"function","name":"retire","inputs":[{"name":"tokenId","type":"uint256","internalType":"uint256"}],"outputs":[],"stateMutability":"nonpayable"},{"type":"function","name":"totalSupply","inputs":[],"outputs":[{"name":"","type":"uint256","internalType":"uint256"}],"stateMutability":"view"},{"type":"event","name":"Minted","inputs":[{"name":"tokenId","type":"uint256","indexed":true,"internalType":"uint256"},{"name":"projectId","type":"string","indexed":false,"internalType":"string"},{"name":"creditType","type":"string","indexed":false,"internalType":"string"}],"anonymous":false},{"type":"event","name":"Retired","inputs":[{"name":"tokenId","type":"uint256","indexed":true,"internalType":"uint256"}],"anonymous":false}],"bytecode":{"object":"0x6080604052348015600e575f5ffd5b50610f1a8061001c5f395ff3fe608060405234801561000f575f5ffd5b5060043610610060575f3560e01c8063036a1c221461006457806318160ddd146100995780633790cf57146100b757806353e3e26a146100d357806375794a3c146100ef578063da304e4d1461010d575b5f5ffd5b61007e6004803603810190610079919061070d565b61013d565b604051610090969594939291906107d1565b60405180910390f35b6100a1610312565b6040516100ae9190610845565b60405180910390f35b6100d160048036038101906100cc919061070d565b61031b565b005b6100ed60048036038101906100e8919061098a565b610376565b005b6100f7610487565b6040516101049190610845565b60405180910390f35b6101276004803603810190610122919061070d565b61048d565b6040516101349190610b4f565b60405180910390f35b5f602052805f5260405f205f91509050805f01805461015b90610b9c565b80601f016020809104026020016040519081016040528092919081815260200182805461018790610b9c565b80156101d25780601f106101a9576101008083540402835291602001916101d2565b820191905f5260205f20905b8154815290600101906020018083116101b557829003601f168201915b5050505050908060010154908060020180546101ed90610b9c565b80601f016020809104026020016040519081016040528092919081815260200182805461021990610b9c565b80156102645780601f1061023b57610100808354040283529160200191610264565b820191905f5260205f20905b81548152906001019060200180831161024757829003601f168201915b50505050509080600301805461027990610b9c565b80601f01602080910402602001604051908101604052809291908181526020018280546102a590610b9c565b80156102f05780601f106102c7576101008083540402835291602001916102f0565b820191905f5260205f20905b8154815290600101906020018083116102d357829003601f168201915b505050505090806004015490806005015f9054906101000a900460ff16905086565b5f600154905090565b60015f5f8381526020019081526020015f206005015f6101000a81548160ff021916908315150217905550807ffe4758e6ccdb65cb7d78b678b554dc5319e940c6ee582e94811b7d48fbb506c560405160405180910390a250565b6040518060c001604052808681526020018581526020018481526020018381526020018281526020015f15158152505f5f60015481526020019081526020015f205f820151815f0190816103ca9190610d6c565b506020820151816001015560408201518160020190816103ea9190610d6c565b5060608201518160030190816104009190610d6c565b506080820151816004015560a0820151816005015f6101000a81548160ff0219169083151502179055509050506001547fa927ac04d4d3734fe8f2c6d7e10171f210b004d3f2d2a4449bbc6a5f2e5427e38685604051610461929190610e3b565b60405180910390a260015f81548092919061047b90610e9d565b91905055505050505050565b60015481565b610495610694565b5f5f8381526020019081526020015f206040518060c00160405290815f820180546104bf90610b9c565b80601f01602080910402602001604051908101604052809291908181526020018280546104eb90610b9c565b80156105365780601f1061050d57610100808354040283529160200191610536565b820191905f5260205f20905b81548152906001019060200180831161051957829003601f168201915b505050505081526020016001820154815260200160028201805461055990610b9c565b80601f016020809104026020016040519081016040528092919081815260200182805461058590610b9c565b80156105d05780601f106105a7576101008083540402835291602001916105d0565b820191905f5260205f20905b8154815290600101906020018083116105b357829003601f168201915b505050505081526020016003820180546105e990610b9c565b80601f016020809104026020016040519081016040528092919081815260200182805461061590610b9c565b80156106605780601f1061063757610100808354040283529160200191610660565b820191905f5260205f20905b81548152906001019060200180831161064357829003601f168201915b5050505050815260200160048201548152602001600582015f9054906101000a900460ff1615151515815250509050919050565b6040518060c00160405280606081526020015f815260200160608152602001606081526020015f81526020015f151581525090565b5f604051905090565b5f5ffd5b5f5ffd5b5f819050919050565b6106ec816106da565b81146106f6575f5ffd5b50565b5f81359050610707816106e3565b92915050565b5f60208284031215610722576107216106d2565b5b5f61072f848285016106f9565b91505092915050565b5f81519050919050565b5f82825260208201905092915050565b8281835e5f83830152505050565b5f601f19601f8301169050919050565b5f61077a82610738565b6107848185610742565b9350610794818560208601610752565b61079d81610760565b840191505092915050565b6107b1816106da565b82525050565b5f8115159050919050565b6107cb816107b7565b82525050565b5f60c0820190508181035f8301526107e98189610770565b90506107f860208301886107a8565b818103604083015261080a8187610770565b9050818103606083015261081e8186610770565b905061082d60808301856107a8565b61083a60a08301846107c2565b979650505050505050565b5f6020820190506108585f8301846107a8565b92915050565b5f5ffd5b5f5ffd5b7f4e487b71000000000000000000000000000000000000000000000000000000005f52604160045260245ffd5b61089c82610760565b810181811067ffffffffffffffff821117156108bb576108ba610866565b5b80604052505050565b5f6108cd6106c9565b90506108d98282610893565b919050565b5f67ffffffffffffffff8211156108f8576108f7610866565b5b61090182610760565b9050602081019050919050565b828183375f83830152505050565b5f61092e610929846108de565b6108c4565b90508281526020810184848401111561094a57610949610862565b5b61095584828561090e565b509392505050565b5f82601f8301126109715761097061085e565b5b813561098184826020860161091c565b91505092915050565b5f5f5f5f5f60a086880312156109a3576109a26106d2565b5b5f86013567ffffffffffffffff8111156109c0576109bf6106d6565b5b6109cc8882890161095d565b95505060206109dd888289016106f9565b945050604086013567ffffffffffffffff8111156109fe576109fd6106d6565b5b610a0a8882890161095d565b935050606086013567ffffffffffffffff811115610a2b57610a2a6106d6565b5b610a378882890161095d565b9250506080610a48888289016106f9565b9150509295509295909350565b5f82825260208201905092915050565b5f610a6f82610738565b610a798185610a55565b9350610a89818560208601610752565b610a9281610760565b840191505092915050565b610aa6816106da565b82525050565b610ab5816107b7565b82525050565b5f60c083015f8301518482035f860152610ad58282610a65565b9150506020830151610aea6020860182610a9d565b5060408301518482036040860152610b028282610a65565b91505060608301518482036060860152610b1c8282610a65565b9150506080830151610b316080860182610a9d565b5060a0830151610b4460a0860182610aac565b508091505092915050565b5f6020820190508181035f830152610b678184610abb565b905092915050565b7f4e487b71000000000000000000000000000000000000000000000000000000005f52602260045260245ffd5b5f6002820490506001821680610bb357607f821691505b602082108103610bc657610bc5610b6f565b5b50919050565b5f819050815f5260205f209050919050565b5f6020601f8301049050919050565b5f82821b905092915050565b5f60088302610c287fffffffffffffffffffffffffffffffffffffffffffffffffffffffffffffffff82610bed565b610c328683610bed565b95508019841693508086168417925050509392505050565b5f819050919050565b5f610c6d610c68610c63846106da565b610c4a565b6106da565b9050919050565b5f819050919050565b610c8683610c53565b610c9a610c9282610c74565b848454610bf9565b825550505050565b5f5f905090565b610cb1610ca2565b610cbc818484610c7d565b505050565b5b81811015610cdf57610cd45f82610ca9565b600181019050610cc2565b5050565b601f821115610d2457610cf581610bcc565b610cfe84610bde565b81016020851015610d0d578190505b610d21610d1985610bde565b830182610cc1565b50505b505050565b5f82821c905092915050565b5f610d445f1984600802610d29565b1980831691505092915050565b5f610d5c8383610d35565b9150826002028217905092915050565b610d7582610738565b67ffffffffffffffff811115610d8e57610d8d610866565b5b610d988254610b9c565b610da3828285610ce3565b5f60209050601f831160018114610dd4575f8415610dc2578287015190505b610dcc8582610d51565b865550610e33565b601f198416610de286610bcc565b5f5b82811015610e0957848901518255600182019150602085019450602081019050610de4565b86831015610e265784890151610e22601f891682610d35565b8355505b6001600288020188555050505b505050505050565b5f6040820190508181035f830152610e538185610770565b90508181036020830152610e678184610770565b90509392505050565b7f4e487b71000000000000000000000000000000000000000000000000000000005f52601160045260245ffd5b5f610ea7826106da565b91507fffffffffffffffffffffffffffffffffffffffffffffffffffffffffffffffff8203610ed957610ed8610e70565b5b60018201905091905056fea26469706673582212209c07227a5bf6f44dfc0a8bcfc8e288b3e4297cc77c8c48f82c3dbc4f6e81758064736f6c634300081e0033","linkReferences":{}},"methodIdentifiers":{"credits(uint256)":"036a1c22","getCredit(uint256)":"da304e4d","mint(string,uint256,string,string,uint256)":"53e3e26a","nextTokenId()":"75794a3c","retire(uint256)":"3790cf57","totalSupply()":"18160ddd"},"id":21}